:020000040800F2
:10000000A0080020C101000873220008DB1D0008C1
:1000100071220008A9020008092C00080000000055
:10002000000000000000000000000000492500085A
:10003000F502000800000000952200084B2500088A
:10004000DB010008DB010008DB010008DB01000820
:10005000DB010008DB010008DB010008DB01000810
:10006000DB010008DB010008DB010008DB01000800
:10007000AD020008B9020008C5020008D10200085C
:10008000DD020008E9020008DB010008DB010008CE
:10009000DB010008DB010008DB010008DB010008D0
:1000A000DB01000839260008DB010008DB0100083D
:1000B000DB010008DB010008DB010008DB010008B0
:1000C000DB010008DB010008DB010008DB010008A0
:1000D000DB010008E52B0008F12B0008FD2B0008D0
:1000E000DB010008DB010008DB010008DB01000880
:1000F000DB010008DB010008DB010008DB01000870
:10010000DB010008DB010008DB010008DB0100085F
:10011000DB010008DB010008452600085126000825
:10012000DB010008DB010008DB010008DB0100083F
:10013000DB010008DB010008DB010008DB0100082F
:10014000DB010008DB010008DB010008DB0100081F
:10015000DB010008DB010008DB010008DB0100080F
:10016000DB010008DB010008DB010008DB010008FF
:10017000DB010008DB010008DB01000800000000D3
:10018000DB010008DB010008DB010008DB010008DF
:10019000DB010008DB010008DB010008DB010008CF
:1001A000DB010008DB010008DB010008DFF80CD0F0
:1001B00000F068F800480047552C0008A00800200F
:1001C0000648804706480047FEE7FEE7FEE7FEE7F1
:1001D000FEE7FEE7FEE7FEE7FEE7FEE7F52500089F
:1001E000AD0100082DE9F05F0546002092469B46D0
:1001F00088460646814640241BE02846414647463D
:10020000224600F02FF853465A46C01A914110D3A7
:1002100011461846224600F016F82D1A67EB010821
:100220004F4622460120002100F00DF817EB00098F
:100230004E41201EA4F10104DFDC484631462A4627
:100240004346BDE8F09F202A04DB203A00FA02F181
:10025000002070479140C2F1200320FA03F31943B4
:1002600090407047202A04DB203A21FA02F0002156
:10027000704721FA02F3D040C2F1200291400843B6
:1002800019467047064C074D06E0E06840F0010350
:1002900094E8070098471034AC42F6D3FFF78AFF82
:1002A000282F0008482F0008FEE70000014800F052
:1002B00049B8000018040020014800F043B80000CD
:1002C000D0030020014800F03DB80000F8020020F3
:1002D000014800F037B80000B0020020014800F0EB
:1002E00031B8000040030020014800F02BB80000A6
:1002F00088030020704710B590F8251000240229CB
:1003000003D00421C16301241AE001680A6822F0C5
:100310000E020A6001680A6822F001020A6090F881
:100320004410036C01F01C02012101FA02F25A6030
:1003300080F82510002180F82410816B01B18847D6
:10034000204610BDF0B4016C0C6801680D6890F88F
:10035000442002F01C06042202FA06F3234211D0C4
:100360006B070FD50B689B0603D40B6823F00403BF
:100370000B6090F8441001F01C018A40016C4A6047
:10038000016B1DE0022303FA06F727424FF0000C31
:100390004FF0010218D0AF0716D50C68A40605D49B
:1003A0000C6824F00A040C6080F8252090F84410B2
:1003B00001F01C018B40016C4B6080F824C0C16AC5
:1003C00000291AD0F0BC08470823B340234214D0B8
:1003D0002B0712D50B6823F00E030B6090F8441026
:1003E000036C01F01C0102FA01F15960C26380F84C
:1003F000252080F824C0416BE2E7F0BC7047000084
:1004000070B568B12B4C036814212B4AA34209D262
:100410002A4C1C44B4FBF1F18900C0E910210BE027
:10042000012070BD234C64421C44B4FBF1F18900EF
:100430004164204908390164022180F825101C68B4
:1004400047F6F0718C43D0E902152943D0E90456F0
:100450003543294385692943C5692943056A2943E9
:10046000214319608168B1F5804F19D0036C0F21C9
:10047000934202D152F8A83F02E00E4AA03213681C
:1004800090F8444004F01C04A1408B43136090F8A2
:100490004430416803F01C0399401368194311600C
:1004A0000021C163012280F8252080F8241008462D
:1004B00070BD00000804024000000240F8FFFDBFCC
:1004C000094810B54FF0FF31816300228263016457
:1004D000026481628262C162C2620163026300F0EF
:1004E00075F9002010BD0000001002402DE9F84F02
:1004F000DFF888B100234FF0010C4FF0030A4FF0F2
:100500000F090BF1040EB1E00CFA03F632406FD084
:100510004C68022C01D0122C11D1DC0800EB8407AE
:100520003C6A5D07ED0E09FA05F824EA0804D1F8E3
:10053000108008FA05F848EA0408C7F82080076820
:100540005D0091F804800AFA05F408F00308A74357
:1005500008FA05F848EA0708C0F800804F68012F3C
:1005600005D0022F03D0112F01D0122F10D1D0F8B7
:100570000880CF6828EA0408AF4047EA0807876088
:100580004768B7430E79C6F300169E403E43466067
:10059000C668A6438C68AC403443C4604C68E40031
:1005A00063D5374C256E45F001052566246E23F092
:1005B000030504F001040094324C2F19BD689C0718
:1005C000260F09FA06F4A543B0F1904F04D02E4C43
:1005D000A04203D1012421E000241FE02B4CA042C3
:1005E00001D102241AE02A4CA04202D1032415E0D2
:1005F0003BE0284CA04201D104240FE0264CA0424D
:1006000001D105240AE0254CA04201D1062405E0D1
:10061000234CA04201D1072400E00824B4402C431D
:10062000BC60DBF800405D464E689443F60300D59D
:1006300014432C60DEF8004075464E689443B603C0
:1006400000D514432C600D4D08352C684E6894433A
:10065000F60200D514432C60084D0C352C684E680A
:100660009443B60200D514432C605B1C0A6832FA2E
:1006700003F47FF449AFBDE8F88F000000040140A7
:10068000001002400000014000040048000800483B
:10069000000C0048001000480014004800180048F2
:1006A000001C00480AB181617047816270470000F8
:1006B00001480068704700000C00002070B504007D
:1006C00011D021684CF6CC400860216845F25550A5
:1006D0000860D4E9000141602168A0688860FFF7E4
:1006E000E7FF054609E0012070BD00BFFFF7E0FF0E
:1006F000401B302801D9032070BD2068C068002845
:10070000F4D120680269E1688A4201D0016102E007
:100710004AF6AA210160002070BD00684AF6AA21AD
:10072000016000207047000002480168491C016018
:10073000704700000C00002010B50024032000F0DA
:10074000B3F8002000F008F808B1012401E000F03F
:100750003FF8204610BD000000B5014687B00022DA
:10076000192000F081F8192000F072F81348016E8A
:1007700041F400610166006E05A900F40060069076
:10078000684600F04DFB00F083FB0D490D4AB0FBBD
:10079000F1F10D48491E0260416040F2E73200214C
:1007A000C0E90321816000F079FF10B1012007B09A
:1007B00000BD054800F0CAFFF9E700000010024044
:1007C00040420F00002C01406004002070470000F0
:1007D0001E4808B5016E41F001010166016E01F08D
:1007E00001010091816D41F080518165806D00F0C3
:1007F00080500090032000F057F8002211466FF05F
:100800000B0000F031F8002211466FF00A0000F0F2
:100810002BF8002211466FF0090000F025F80022A5
:100820001146501F00F020F800221146101F00F062
:100830001BF800221146901E00F016F80022BDE8B9
:1008400008401146501E00F00FB800000010024092
:1008500000F01F02012191404009800000F1E020DA
:10086000C0F8001170470000F0B40E4B1B680C4636
:10087000C3F30223C3F10705042D00D90425191D74
:10088000072901D2002300E0DB1E012606FA05F14C
:10089000491E214099409E40761E16403143F0BCCF
:1008A00001F0E8BC0CED00E0064900F00702086822
:1008B0004FF6FF03184040EA0220034A1043086045
:1008C000704700000CED00E00000FA051649B0F595
:1008D000007F0868C0F3412009D0022805D00868CD
:1008E00020F4C06040F48060086000207047012858
:1008F000FBD0086820F4C06040F4007008600B482A
:100900003222006850430A4AB0FBF2F0401C00E07B
:10091000401E4A69520501D50028F9D148694005B1
:10092000E3D5032070470000007000401000002055
:1009300040420F000248006800F4C06070470000A9
:10094000007000402DE9F84F044600270088EC4D68
:100950003E46010504F1200B1DD5A06E78B1B0F51F
:10096000800F11D0B0F5000F04D0B0F5400F22D0A9
:1009700001270FE0E86840F48030E8601BE00021C8
:10098000201D01F089FC03E00021584601F01AFD0A
:10099000070010D03E462088C00426D5E06EC0B1C6
:1009A000B0F1807F1AD0B0F1007F0DD0B0F1407F60
:1009B00019D0012718E0D5F88800A16E20F4400076
:1009C0000843C5F88800E6E7E86840F48030E8604E
:1009D00009E00021201D01F05FFC03E000215846E2
:1009E00001F0F0FC0746F7B13E46206880033AD597
:1009F000A86D4FF00008C00009D4A86D40F08050E9
:100A0000A865A86D4FF0010800F080500090DFF855
:100A1000F4A2DAF8001041F48071CAF80010FFF770
:100A200047FE814610E0D5F88800E16E20F0407066
:100A30000843C5F88800D8E7FFF73AFEA0EB0900A5
:100A4000022801D9032705E0DAF80000C005F3D534
:100A5000002F7CD04FEA0706B8F1000F03D0A86D35
:100A600020F08050A8652078C00707D0D5F888000E
:100A7000A16B20F003000843C5F8880020788007A8
:100A800007D5D5F88800E16B20F00C000843C5F8C5
:100A900088002078400707D5D5F88800216C20F021
:100AA00030000843C5F888002078000707D5D5F83E
:100AB0008800616C20F0C0000843C5F888002078E9
:100AC000C00607D5D5F88800A16C20F44070084313
:100AD000C5F888002078800607D5D5F88800E16C35
:100AE00020F440600843C5F888002088800507D5B9
:100AF000D5F88800216E20F440200843C5F888000E
:100B00002088400507D5D5F88800616E20F4401094
:100B10000843C5F888002078400607D5D5F8880036
:100B2000216D20F440500843C5F888002078000665
:100B300007D5D5F88800616D20F440400843C5F81A
:100B400088002088C00509D5D5F8880000E027E096
:100B5000A16D20F440300843C5F888002068C00229
:100B600007D5D5F89C00E16D20F003000843C5F8D7
:100B70009C0020884FF0006780044FF0806850D5BB
:100B8000D5F88800216F20F040600843C5F8880040
:100B9000206FB8423DD1E86840F48010E86040E042
:100BA000D5F8900010F4407015D0D4F88810814228
:100BB00011D0D5F89000D5F8901020F4407041F491
:100BC0008031C5F89010D5F8901021F48031C5F827
:100BD0009010C5F89000C00711D0FFF769FD0746D7
:100BE00041F2883907E000BFFFF762FDC11B4945AC
:100BF00001D9032630E7D5F890008007F4D5D5F861
:100C00009000D4F8881020F440700843C5F8900094
:100C100022E7404505D10121201D01F03DFB00B137
:100C200006462068000317D5D5F88800616F20F0CC
:100C300040600843C5F88800606FB84204D1E86896
:100C400040F48010E86007E0404505D10121201DF7
:100C500001F022FB00B106462068400317D5D5F805
:100C60008800A16F20F040600843C5F88800A06F9D
:100C7000B84204D1E86840F48010E86007E04045DD
:100C800005D10121201D01F007FB00B10646208897
:100C900040041AD5D5F88800E16F20F04050084391
:100CA000C5F88800E06FB0F1805F03D0B0F1005F5D
:100CB00005D00AE00221201D01F0EEFA03E0022136
:100CC000584601F07FFB00B106462088000408D595
:100CD000D5F88800D4F8801020F080400843C5F88B
:100CE00088002068C00307D555F8880FD4F8841011
:100CF00020F00040084328603046BDE8F88F00002F
:100D000000100240007000402DE9F0470F4605003A
:100D100058D03F4E306800F00700B84209D2306822
:100D200020F0070038433060306800F00700B84218
:100D300048D12878374CC0072CD06868032811D0D8
:100D4000022812D0216898B1490500293ADAA16831
:100D500021F003010143A160FFF7AAFC804641F2A4
:100D6000883910E021688901EFE721688903ECE701
:100D70008907EAE7FFF79CFCA0EB0801494502D987
:100D80000320BDE8F087A068696800F00C00B0EBB4
:100D9000810FEFD12878800705D5A068A96820F0D9
:100DA000F0000843A060306800F00700B8420BD99B
:100DB000306820F0070038433060306800F00700EA
:100DC000B84201D00120DCE72878400705D5A068AB
:100DD000E96820F4E0600843A0602878000706D5A1
:100DE000A068296920F4605040EAC100A06000F0CA
:100DF00061F8A168084AC1F30311515C01F01F01B9
:100E0000C84006490860BDE8F0470020FFF7A4BCD1
:100E10000020024000100240E02E000810000020D8
:100E20000F2202600C4A936803F003034360936847
:100E300003F0F0038360936803F4E063C360926897
:100E40004FF4E06303EAD20202610448006800F054
:100E500007000860704700000010024000200240B8
:100E6000014800687047000010000020054806494E
:100E700000688968054AC1F30221515C01F01F0135
:100E8000C84070471000002000100240202F0008CA
:100E90000548064900688968054AC1F3C221515CCA
:100EA00001F01F01C84070471000002000100240F0
:100EB000202F000870B52549002318468A68CC68A1
:100EC00012F00C0204F00306214C4FF4610509D026
:100ED0000C2A05D0042A26D0082A00D1284670BD45
:100EE000012E10D10B681B0704D4D1F89430C3F342
:100EF000032302E00B68C3F30313164E56F82330A6
:100F00007AB10C2AEBD1C86800F00302C868C0F3BC
:100F10000210401C022A08D0032A09D0B3FBF0F0CB
:100F200008E0184670BD204670BDB4FBF0F001E04B
:100F3000B5FBF0F0CA68C968C2F306225043C1F39A
:100F40004161491C4900B0FBF1F070BD0010024046
:100F50000024F400F02E000870B5104C86B0164640
:100F6000E06C0D4640F00100E064E06C694600F082
:100F700001000590A0150090022001900390002030
:100F8000029004904FF09040FFF7B0FAA06835430C
:100F900020F0FE402843A06006B070BD0010024063
:100FA0002DE9F84305007CD0F84CA06800F00C0651
:100FB000E06800F003072878C00662D576B10C2EF1
:100FC00001D1012F0AD0A8690028206878D040F00C
:100FD00001002060FFF76CFB804659E02068800725
:100FE00002D5A8690028DED0296A2068000703D549
:100FF000206800F0F00004E0D4F89400F02202EA47
:101000001010814216D9084601F060FA002848D134
:10101000206840F0080020602068296A20F0F00075
:10102000084320606068E96920F47F4040EA0120BD
:10103000606015E0206840F0080020602068296AA0
:1010400020F0F000084320606068E96920F47F40E8
:1010500040EA01206060286A01F038FA0028D6D101
:10106000FFF728FFA168CA4AC1F30311515C01F0E0
:101070001F01C840C74908600020FFF76DFB00282A
:101080007ED12EE0FFF714FBA0EB0800022878D8F1
:1010900020688007F6D5206840F0080020602068AE
:1010A00001E0BBE00CE0296A20F0F000084320607A
:1010B0006068E96920F47F4040EA0120606010E048
:1010C00020F001002060FFF7F3FA804606E000BF41
:1010D000FFF7EEFAA0EB08000228D8D820688007B6
:1010E000F6D42878C00740D0082E18D00C2E01D195
:1010F000032F14D06868B0F5803F17D0B0F5A02F4B
:10110000206817D020F480302060206820F48020F0
:1011100020606868E0B1FFF7CBFA804614E02068F1
:10112000800322D56868002878D01EE0206840F44B
:101130008030EDE740F480202060F7E7FFF7B8FA51
:10114000A0EB08006428A2D820688003F6D50CE044
:10115000FFF7AEFA804605E0FFF7AAFAA0EB080019
:10116000642894D820688003F6D4287880073BD57B
:10117000042E11D00C2E01D1022F0DD0E86801E011
:101180005EE1B8E0002820681ED040F48070206046
:10119000FFF78EFA07460CE0206840050CD5E8689A
:1011A0000028C1D008E000BFFFF782FAC01B022868
:1011B00093D820684005F7D56068297C20F0FE4070
:1011C00040EA016060600FE020F480702060FFF76B
:1011D0006FFA074605E000BFFFF76AFAC01B022856
:1011E000B1D820684005F7D42878000729D5686968
:1011F0000028D4F8940012D040F00100C4F8940004
:10120000FFF756FA074604E0FFF752FAC01B022820
:1012100071D8D4F894008007F6D512E017E120F0D9
:101220000100C4F89400FFF743FA074605E000BF49
:10123000FFF73EFAC01B02285DD8D4F8940080075F
:10124000F6D42878400766D5A06D0027C00008D4E2
:10125000A06D40F08050A065A06D012700F0805087
:1012600000904D480168C90512D40168814641F4D7
:1012700080710160FFF71CFA804605E0FFF718FA5D
:10128000A0EB0800022836D8D9F80000C005F5D533
:10129000A868012816D00528D4F8900017D020F0AF
:1012A0000100C4F89000D4F8900020F0040000BFC2
:1012B000C4F89000A86841F28839C0B1FFF7F8F986
:1012C00080460FE0D4F8900040F00100F0E740F0D5
:1012D0000400C4F89000F5E7FFF7EAF9A0EB080175
:1012E000494508D8D4F890008007F5D50EE0FFF7FF
:1012F000DFF9804606E07CE0FFF7DAF9A0EB0801B1
:10130000494576D8D4F890008007F5D41FB1A06D78
:1013100020F08050A0652878800628D5686A0028CB
:10132000D4F8980012D040F00100C4F89800FFF7FC
:10133000BFF9074605E000BFFFF7BAF9C01B022856
:101340007DD8D4F898008007F6D510E020F0010091
:10135000C4F89800FFF7ACF9074604E0FFF7A8F9D6
:10136000C01B02286BD8D4F898008007F6D4A86A6E
:10137000F0B30C2E6BD00228206820F08070206023
:101380000CD0206810F0205F47D04AE000100240E7
:10139000E02E00081000002000700040FFF788F9E0
:1013A000064604E0FFF784F9801B022847D820682E
:1013B0008001F7D4286B55F82C1F00011038084322
:1013C000298A244A490802EB4151AA6841EA0221CC
:1013D0000843297D4FF07E42490802EB41610843F2
:1013E000297B40EAC160E060206840F0807001E045
:1013F0002BE024E02060E06840F08070E060FFF7C0
:1014000057F9054605E000BFFFF752F9401B0228D7
:1014100015D820688001F7D517E0E06820F00300B8
:10142000E060E0680C490840E060FFF741F90546DC
:1014300008E000BFFFF73CF9401B022802D9032057
:10144000BDE8F88320688001F4D40020F8E701208B
:10145000F6E700000000E0FFFFFFEEFE2DE9F0419F
:101460001D4616460F46040003D094F8710018B1CB
:1014700008E00120BDE8F081002084F870002046DB
:1014800000F068FB242084F871002068016821F0D6
:1014900001010160204601F023FA0128EAD0606AC8
:1014A00010B1204601F06FF92068816841F4804155
:1014B00081602068816821F40041394381607005B2
:1014C00040EA054120680268064B1A400A43026060
:1014D0002068016841F0010101602046BDE8F0414B
:1014E00001F0B5B9FFFF00FC2DE9F041040005D083
:1014F0000025A56294F85D0018B107E00120BDE861
:10150000F08184F85C50204600F044F8022384F80F
:101510005D302068016821F040010160E0684FF40F
:10152000E066B04201D9002101E04FF48051B0F5EE
:10153000706F02D0B04200D0A562276B012227B99C
:10154000B04201D9236300E02263D4E901031843C8
:10155000D4E9043633431843238B03F40073184350
:10156000E3691843236A1843A36A18432368186081
:10157000636B606AA66918430427E36807EA1646A6
:1015800033431843084321684860256684F85D208A
:101590000020B4E7F0B50068104987B088421BD13D
:1015A0000F48816D41F400418165806D022400F493
:1015B000004005904FF480600025032606278DE843
:1015C000F10069460748FEF791FF20208DE8F10001
:1015D00069460548FEF78AFF07B0F0BD003C0040B1
:1015E0000010024000080048000400484FF0E021CD
:1015F0000428086903D020F004000861704740F017
:101600000400FAE7704710B5401EB0F1807F01D3A7
:10161000012010BD4FF0E02460610F21601700F041
:1016200029FE0020A06107202061002010BD10B518
:10163000FFF7E8FF10BD70477047704770B590F82E
:101640003C20012A24D0012480F83C40022280F86A
:101650003D200268536895680E4EB24202D00E4E8D
:10166000B24203D123F470064B68334323F0700673
:101670000B688968334325F080052943536002686D
:10168000916080F83D40002180F83C10084670BD14
:10169000022070BD002C01400034014010B5040050
:1016A00003D094F83D0010B107E0012010BD0020E8
:1016B00084F83C00204600F00DF8022084F83D003C
:1016C000211D206800F0CAFF012084F83D000020A1
:1016D00010BD000008B501681948B1F1804F11D064
:1016E000184A914217D1816D41F010018165806DDA
:1016F000002200F01000009011463620FFF7B4F8E9
:10170000362019E0816D41F001018165806D00F0A6
:101710000100009008BD0C4A9142FBD1816D41F05F
:1017200020018165806D002200F0200000901146AC
:101730003720FFF799F83720BDE80840FFF788B851
:101740000010024000100040001400400168CA6808
:1017500042F00102CA600068826807490A40062A0E
:1017600008D082680A40B2F5803F03D0016841F09A
:1017700001010160002070470700010070B50446B8
:1017800090F83C00012817D0012584F83C50022035
:1017900084F83D0020688268324E324022F47F4255
:1017A00082600868502839D00DDC202855D005DC2F
:1017B00098B3102843D150E0022070BD30284CD09F
:1017C00040283CD141E0602830D070280CD0B0F5E2
:1017D000805F03D0B0F5005F31D112E020688168EE
:1017E000204A7032114016E0CB68D1E9012120680F
:1017F00000F094FF21688868304040F077008860EE
:101800001DE0CB68D1E90121206800F087FF206846
:10181000816841F48041816011E01EE0CA68496836
:10182000206800F08DFF5021206806E0CA684968F2
:10183000206800F096FF6021206800F079FF84F8AE
:101840003D50002084F83C0070BDCA68496820689B
:1018500000F076FF40212068EFE72268014610463D
:10186000EBE7000088FFFEFF704770B50446006894
:1018700001694FF00005C943890715D4C168C94300
:10188000890711D4E91E0161012020772068806951
:101890008007204602D0FFF7E7FF04E000F0A7F83A
:1018A000204600F0A5F8257720680169C94349075B
:1018B00017D4C168C943490713D46FF0040101610B
:1018C000022020772068806910F4407F204602D0F3
:1018D000FFF7CAFF04E000F08AF8204600F088F81D
:1018E000257720680169C943090716D4C168C9432F
:1018F000090712D46FF008010161042020772068E5
:10190000C0698007204602D0FFF7AEFF04E000F078
:101910006EF8204600F06CF8257720680169C9430D
:10192000C90617D4C168C943C90613D46FF01001A2
:101930000161082020772068C06910F4407F2046AC
:1019400002D0FFF791FF04E000F051F8204600F0CC
:101950004FF8257720680169C943C90708D1C168D4
:10196000C943C90704D1891E0161204600F042F82D
:1019700020680169C943090609D4C168C943090639
:1019800005D46FF0800101612046FFF755FE206805
:101990000169C943C90509D4C168C943090605D409
:1019A0006FF4807101612046FFF745FE20680169F0
:1019B000C943490609D4C168C943490605D46FF033
:1019C00040010161204600F01FF820680169C94309
:1019D00089060BD4C168C943890607D46FF020017A
:1019E00001612046BDE87040FFF727BE70BD70471B
:1019F0007047000000680349884201D1FEF794BE99
:101A000070470000002C014070477047704700008D
:101A10002DE9F04102680446D0691168936810F01E
:101A20000F0F4FF000055BD003F0010601F4907733
:101A3000374369D0C70707D0CF0505D501271762FF
:101A4000626F42F001026267820708D5DA0706D0AA
:101A5000276802223A62626F42F00402626742071C
:101A600008D5DA0706D0236804221A62626F42F0B2
:101A70000202626702070AD501F02002324306D053
:101A8000236808221A62626F42F008026267626F7E
:101A9000002A32D0800605D5880603D5216E09B10B
:101AA00020468847606F000703D42068806840069E
:101AB00025D5204600F003FF20688168490619D526
:101AC000816821F040018160E06E98B12049816316
:101AD000E06EFEF710FC00280FD0E06E816B06E090
:101AE000860611D58E060FD5216E1EE02046BDE874
:101AF000F04108472046FFF789FFBDE8F081204606
:101B0000FFF784FF6567F8E7C60209D55B0207D5D2
:101B10004FF4801010622046BDE8F041FFF775BF1A
:101B2000030605D50B0603D5616E0029DED1E4E777
:101B30004006E2D54806E0D51168204621F0400174
:101B40001160202184F87110656600F045F9D4E732
:101B5000AB2800082DE9F0470546DFF84882D0F8A9
:101B600000C0914B0320072100240226802786B065
:101B70004FF090424FF01009C44553D1D3F860C0E4
:101B80004CF4804CC3F860C01B6E029403F4804395
:101B90000593CDE903014FF4B053CDE90036A046DB
:101BA00069461046FEF7A2FCDFF804A27F495046C2
:101BB000CAF80010C0E90164C0E90347CAF814403C
:101BC000CAF81840CAF81C40CAF82040FEF718FCB2
:101BD00018B1A42177A001F018F8754C7348C5F826
:101BE0006CA048341438CAF8285084E84102C4E98B
:101BF0000387C4F81480C4F81880C4F81C802046F9
:101C0000C4F82080FEF7FCFB18B1B52169A000F0F4
:101C1000FCFFAC66002211462520A562FEF724FEDB
:101C2000252054E0DFF89C81C44555D1D3F858C035
:101C30004CF4003CC3F858C09B6D029403F400338D
:101C40000593CDE903010E23CDE90036B046694680
:101C50001046FEF74BFCDFF858A154490AF1900AF0
:101C600014315046CAF80010C0E90164C0E90347C6
:101C7000CAF81440CAF81840CAF81C40CAF82040F4
:101C8000FEF7BEFB18B1E2214AA000F0BEFF484EAD
:101C9000C5F86CA0D836CAF82850C6E90347746165
:101CA0004248B461F4612830346286E8010330466A
:101CB000FEF7A6FB18B1F3213EA000F0A6FFAE662A
:101CC000002211462620B562FEF7CEFD2620FEF743
:101CD000BFFD06B0BDE8F0873B4A9445F9D19A6D47
:101CE00042F480229A659A6D804602F48022059221
:101CF0003022CDE900268A4602AA694682E810050C
:101D00003248FEF7F3FB02AA0096019682E810051E
:101D100069462F48FEF7EAFB2449DFF8B8802839E6
:101D20004046C8F80010C0E90164C0E90347C8F89C
:101D30001440C8F81840C8F81C40C8F82040FEF706
:101D40005FFB20B140F227111AA000F05EFFC5F83A
:101D50006C80C8F82850DFF87C80144908F14808E6
:101D600040463C39C0E90347C8F81440C8F8184059
:101D7000C8F81C4088E84202C8F82040FEF740FB43
:101D800020B14FF49C710BA000F03FFFC5F86880B4
:101D9000002211462720C8F82850FEF765FD2720AD
:101DA00095E7000000380140001002405800024052
:101DB000B00200202E2E2F5372632F757361727440
:101DC0002E63000000440040004800400008004826
:101DD00000040048D00300207047FEE770B50446B9
:101DE0004568FEF76DFB002080F31488206880F3BF
:101DF000088803480460AC46BDE8704060470000B6
:101E000008ED00E01D4808B5816C41F001018164D6
:101E1000806C002200F00100009011460C20FEF7BB
:101E200023FD0C20FEF714FD002211460D20FEF7C5
:101E30001BFD0D20FEF70CFD002211460E20FEF7C3
:101E400013FD0E20FEF704FD002211460F20FEF7C1
:101E50000BFD0F20FEF7FCFC002211461020FEF7C0
:101E600003FD1020FEF7F4FC002211461120FEF7BE
:101E7000FBFCBDE808401120FEF7EABC0010024060
:101E80002DE9F0473D4886B0C16C41F00401C164C2
:101E9000C16C01F004010591C16C41F08001C16485
:101EA000C16C01F080010591C16C41F00101C16478
:101EB000C16C01F001010591C16C41F00201C164E6
:101EC000C06CDFF8BC8000F002004FF4346605906F
:101ED000002231464046FEF7E5FB4FF400474FF045
:101EE0009049002239464846FEF7DCFBDFF894A013
:101EF0000022C0215046FEF7D5FB4FF402500024CB
:101F000001258DE8310069464046FEF7EFFA00965C
:101F1000CDE90154694640460394FEF7E7FA2802EA
:101F200000900220CDE901040394694648460494D8
:101F3000FEF7DCFAE8028DE8310069464846FEF714
:101F4000D5FA0097CDE90154694648460394FEF757
:101F5000CDFA4FF442708DE8310069465046FEF7E5
:101F6000C5FAC0200090CDE901546946504603945B
:101F7000FEF7BCFA06B0BDE8F08700000010024092
:101F800000080048000400480C4810B50A490160E8
:101F90000321416040F6FF71C1604FF40061816030
:101FA000FEF78CFB002805D0BDE810403B2104A0C3
:101FB00000F02BBE10BD00000030004014000020D7
:101FC0002E2E2F5372632F697764672E63000000F3
:101FD000134810B5114901604FF48271416000212E
:101FE0004FF4E062C0E90212022202610122426162
:101FF000520282613822C0E9072107224162C0E90A
:102000000A1201634163FFF76FFA002805D0BDE8AB
:102010001040472103A000F0F8BD10BD003C004077
:10202000240000202E2E2F5372632F7370692E63AD
:102030000000000010B5174888B04FF080410160E3
:102040004FF4FA510024C0E90114611EC0E90314E1
:102050008461FFF723FB18B141210FA000F0D5FDEB
:102060004FF48050039003A90A48FFF787FB18B18B
:10207000472109A000F0C9FD009469460548029473
:10208000FFF7DCFA002803D04E2103A000F0BDFDCD
:1020900008B010BD880000202E2E2F5372632F74BD
:1020A000696D2E63000000003EB510480E49002403
:1020B000C0E9001440F63441C0E902418461FFF7F1
:1020C000EDFA18B15E210AA000F09FFD20200090DB
:1020D000694602940548FFF7B1FA002803D065214C
:1020E00003A000F092FD3EBD00100040C80000209B
:1020F0002E2E2F5372632F74696D2E630000000023
:102100003EB511480F490024016041F63F71C0E916
:102110000114C9108461C160FFF7C0FA18B17521BC
:102120000AA000F072FD2020009069460294064843
:10213000FFF784FA002803D07C2104A000F065FD9D
:102140003EBD000000140040080100202E2E2F5339
:1021500072632F74696D2E6300000000114810B582
:102160000F4901604FF4E1314160002181600C2290
:10217000C160C0E904128161C16101621021416244
:102180000902012381631A460021FFF767F900283D
:1021900005D0BDE810404E2103A000F036BD10BDB3
:1021A00000380140480100202E2E2F5372632F75F6
:1021B000736172742E630000114810B50F490160FD
:1021C0004FF4E1314160002181600C22C160C0E91F
:1021D00004128161C161016210214162090201237F
:1021E00081631A460021FFF739F9002805D0BDE8C0
:1021F0001040642103A000F008BD10BD0044004061
:10220000C00100202E2E2F5372632F7573617274DC
:102210002E630000114810B50F4901604FF4E13101
:102220004160002181600C22C160C0E9041281611B
:10223000C1610162102141620902012381631A46D2
:102240000021FFF70BF9002805D0BDE810407A21E6
:1022500003A000F0DABC10BD0048004038020020A6
:102260002E2E2F5372632F75736172742E630000CC
:10227000FEE770470907090E002806DA00F00F0094
:1022800000F1E02080F8141D704700F1E02080F894
:1022900000147047704700002DE9F041444C05469A
:1022A0008846E0680026810728680DD0E16801F0C3
:1022B0000301814216D1A8B1E0686968C0F3021039
:1022C000401C88420ED120E0012804D0022805D00D
:1022D000032807D108E02168890701E02168490542
:1022E000002907DB01265FE02168890302D4216809
:1022F0004903F5E7E1686A686FF00F0321F07301A5
:1023000003EB021211430143E160206820F080607A
:102310002060FEF7CDF9074605E000BFFEF7C8F9DB
:10232000C01B022837D820680001F7D4B8F1000F8D
:1023300018D0B8F1010F1DD0287D4FF07E41400824
:1023400001EB4060A96840EA01202169194A114067
:1023500008432061206840F080602060FEF7A8F903
:1023600007461AE0A868297B000240EAC16021699B
:10237000114AECE7288A1149400801EB4050A9684E
:1023800040EA012021690E4AE1E700BFFEF790F91B
:10239000C01B022801D9032606E020680001F5D5FC
:1023A0002069A969084320613046BDE8F08100003A
:1023B00000100240FF80FFF9FF80FF070000E0FFF0
:1023C000FF809FFF2DE9F0413D4C06468846E068BE
:1023D0000025810730680DD0E16801F003018142DA
:1023E00016D1A8B1E0687168C0F30210401C8842A1
:1023F0000ED120E0012804D0022805D0032807D1FF
:1024000008E02168890701E021684905002907DB08
:10241000012551E02168890302D421684903F5E7C9
:10242000E16872686FF00F0321F0730103EB021291
:1024300011430143E160206820F080502060FEF7E6
:1024400037F9074605E000BFFEF732F9C01B022846
:1024500029D820688000F7D4B8F1000F15D0307C5F
:102460004FF07E41400801EB4060B16840EA012036
:102470006169144A114008436061206840F080504F
:102480002060FEF715F907460FE0B068317B0002C7
:1024900040EAC16061690C4AECE700BFFEF708F949
:1024A000C01B022801D9032506E020688000F5D56D
:1024B00060697169084360612846BDE8F0810000E9
:1024C00000100240FF80FFF9FF80FF07F8B51C4DA8
:1024D00006460024A86DC00002D5FEF72BFA0DE0D9
:1024E000A86D40F08050A865A86D00F08050009065
:1024F000FEF720FAA96D21F08051A965B0F5007FA3
:1025000004D0802E07D94FF003040AE0802E08D9AA
:10251000A02E01D804E001D1022402E0702E00D1E7
:1025200001240848016821F0070121430160006887
:1025300000F00700A04201D00120F8BD0020F8BD46
:1025400000100240002002407047FFF770B810B53D
:10255000BAB00B2023904FF48030249000122690C4
:10256000402027900120289002200421CDE92E014F
:102570002821CDE930102D903290339023A8FEF71A
:102580000FFD00B1FEE70F20349003200024CDE9B9
:1025900035043794042134A83894FEF7B5FB00B114
:1025A000FEE707200F9400900E9410946846FEF703
:1025B000C9F900B1FEE74FF00052D1100020FEF73C
:1025C000CBFC4FF40070FEF781F900B1FEE7FEF797
:1025D00047FC4FF47A71B0FBF1F0FFF714F80420D8
:1025E000FFF704F800221146501EFEF73DF93AB0FD
:1025F00010BD00000D48016841F4700101600C48F5
:10260000016841F001010160002181600268094B0D
:102610001A4002608214C260026822F480220260C2
:1026200081610249C00380390860704788ED00E08D
:1026300000100240FFFFF6EA0148FFF716B900005C
:10264000600400200148FFF710B90000C800002016
:102650000148FFF70AB90000080100202DE9F04702
:102660000268264B264D274E274F284C4FF0804AB4
:10267000984209D0504507D0A84205D0B04203D0B7
:10268000B84201D0A04204D122F0700C4A6842EA5C
:102690000C02DFF87CC0DFF87C80DFF87C90984289
:1026A0000FD050450DD0A8420BD0B04209D0B8424F
:1026B00007D0A04205D0604503D0404501D0484531
:1026C00003D122F44075CA682A434D6922F0800282
:1026D0002A4302608A68C2620A688262984207D00E
:1026E000A04205D0604503D0404501D0484501D106
:1026F0000969016301214161BDE8F087002C0140B7
:102700000004004000080040000C0040003401407C
:1027100000400140004401400048014010B5846879
:1027200042EA032224F47F440A432243826010BD1C
:10273000826822F070020A4342F00701816070470C
:1027400010B5036A046A24F001040462846924F069
:10275000F00444EA021423F00A020A43846102628C
:1027600010BD10B5036A23F0100303628369046A85
:1027700023F4704343EA023224F0A00343EA011138
:102780008261016210BD90F82410C90706D001686B
:102790004A68836A22F400321A434A6090F824108F
:1027A000890706D501684A68C36A22F480321A4351
:1027B0004A6090F82410490706D501684A68036BFF
:1027C00022F480221A434A6090F82410090706D5A3
:1027D00001684A68436B22F400421A434A6090F849
:1027E0002410C90606D501688A68836B22F48052DA
:1027F0001A438A6090F82410890606D501688A6811
:10280000C36B22F400521A438A6090F824104906E0
:1028100011D501684A68036C22F480121A434A6099
:10282000016CB1F5801F06D101684A68436C22F43F
:10283000C0021A434A6090F82410090606D50168C0
:102840004A68806C22F4002202434A607047F8B55F
:10285000002604464667FDF72BFF05462068006802
:102860006FF07E47000708D52B4600224FF4001179
:102870002046009700F084F960B92068006840079E
:102880000AD52B4600224FF480012046009700F025
:1028900077F908B10320F8BD202084F8710084F88E
:1028A000720084F870600020F8BD10B5806A0021C5
:1028B000A0F85A10A0F85210FFF7A8F810BD016850
:1028C0000A6822F490720A6001688A6822F00102A4
:1028D0008A60202180F87210002101667047000094
:1028E0002DE9F0410446016880682369E6691843D0
:1028F00063691025002733431843954A0B68954EAA
:10290000334003430B6020684168E36821F4405181
:10291000194341602168A069914201D0236A18439C
:102920008B6823F4306303438B608B4B21688B48A7
:1029300099420DD1D0F8880010F0030006D001288C
:102940005AD0022856D0032859D157E0012556E025
:10295000834B99420BD1D0F8880010F00C0047D07F
:10296000042849D0082845D00C2848D146E07D4BA2
:1029700099420BD1D0F8880010F0300038D01028E0
:102980003AD0202836D0302839D137E0764B9942DA
:102990000BD1D0F8880010F0C00029D040282BD0EF
:1029A000802827D0C0282AD128E0704B99420ED128
:1029B000D0F8880010F440701AD0B0F5807F1BD09A
:1029C000B0F5007F16D0B0F5407F18D116E09142E7
:1029D00015D1D0F8880010F4406009D0B0F5806FB0
:1029E0000AD0B0F5006F05D0B0F5406F07D105E013
:1029F000002504E0022502E0042500E008255C4BE8
:102A000000264FF4004091423DD135B1022D07D050
:102A1000042D07D0082D10D107E0FEF727FA03E0B8
:102A2000184602E0FEF746FAA8B3626802EB4201DC
:102A3000814202D8B0EB023F01D9012775E0DFF8EF
:102A400034815DB1022D0CD0042D13D0082DF4D1AA
:102A500050082905401846F1000105E0FEF706FA86
:102A60000AE050084449F5E70023FDF7BBFBA0F559
:102A7000407156E0FEF71EFA6268010E030250082C
:102A800018187141F0E7E1694FF6EF7881422FD1D4
:102A9000092DD2D200E048E0DFE805F00609200564
:102AA000230505052600C8E7FEF7E0F901E0FEF77B
:102AB000EFF94100D4F8040001EB5001B1FBF0F054
:102AC00080B2A0F110014145B7D84FF6F071014036
:102AD000C0F3420001432068C16026E027496068D6
:102AE000EAE7FEF7E7F9E4E74FF480316068E3E7EF
:102AF000092DA2D2DFE805F006091E05220505050D
:102B000025009AE7FEF7B2F901E0FEF7C1F90146A8
:102B1000606801EB500100BFB1FBF0F080B2A0F1A2
:102B20001001414589D82168C86026663846666626
:102B3000BDE8F081606803EB5001EDE7FEF7BAF9FC
:102B4000E5E7616800EB5100B0FBF1F0E6E700005B
:102B500000800040F369FFEF0038014000100240A0
:102B60000044004000480040004C0040005000403D
:102B70000024F400FFFC0F00000024F40048E801EA
:102B80002DE9F041984617460E460446069D1DE085
:102B9000681C1BD02DB1FDF78BFDA0EB0800A842EF
:102BA00014D92068016821F4D0710160206881681F
:102BB00021F001018160202084F8710084F8720006
:102BC000002084F870000320BDE8F0812068C0690F
:102BD00036EA000004D00020B842D9D00020F3E744
:102BE0000120F9E70148FEF713BF0000480100206B
:102BF0000148FEF70DBF0000C00100200148FEF7AC
:102C000007BF000038020020FEE7FEE702E008C828
:102C1000121F08C1002AFAD170477047002001E056
:102C200001C1121F002AFBD17047000010B50246F7
:102C30004FF6FF70064C07E052F8013B4340DBB211
:102C400034F8133083EA1020491EF5D210BD00007D
:102C5000E02C0008FDF770FDFFF779FCFFF710F995
:102C6000FFF7D0F8FFF7B4F9FFF778FAFFF7A4FA07
:102C7000FFF7D0FAFFF718FAFFF742FAFFF7DAF991
:102C8000FFF782F91148FDF748FD11480068114C23
:102C900020800F48203001680F4DA1602846FFF7C3
:102CA000C5FF0E4E60800948FDF737FD208861881A
:102CB000884202D12846FFF791F8A088E18888422F
:102CC000F1D13046FFF78AF8EDE70000140000204C
:102CD0000038000800000020000001080040000843
:102CE0000000C1C081C1400101C3C003800241C2D4
:102CF00001C6C006800741C70005C1C581C44004A4
:102D000001CCC00C800D41CD000FC1CF81CE400E53
:102D1000000AC1CA81CB400B01C9C009800841C863
:102D200001D8C018801941D9001BC1DB81DA401AD3
:102D3000001EC1DE81DF401F01DDC01D801C41DCA3
:102D40000014C1D481D5401501D7C017801641D6D3
:102D500001D2C012801341D30011C1D181D04010E3
:102D600001F0C030803141F10033C1F381F24032D3
:102D70000036C1F681F7403701F5C035803441F4A3
:102D8000003CC1FC81FD403D01FFC03F803E41FE53
:102D900001FAC03A803B41FB0039C1F981F8403863
:102DA0000028C1E881E9402901EBC02B802A41EAD3
:102DB00001EEC02E802F41EF002DC1ED81EC402CA3
:102DC00001E4C024802541E50027C1E781E64026D3
:102DD0000022C1E281E3402301E1C021802041E0E3
:102DE00001A0C060806141A10063C1A381A24062D3
:102DF0000066C1A681A7406701A5C065806441A4A3
:102E0000006CC1AC81AD406D01AFC06F806E41AE52
:102E100001AAC06A806B41AB0069C1A981A8406862
:102E20000078C1B881B9407901BBC07B807A41BAD2
:102E300001BEC07E807F41BF007DC1BD81BC407CA2
:102E400001B4C074807541B50077C1B781B64076D2
:102E50000072C1B281B3407301B1C071807041B0E2
:102E60000050C190819140510193C05380524192D2
:102E70000196C056805741970055C19581944054A2
:102E8000019CC05C805D419D005FC19F819E405E52
:102E9000005AC19A819B405B0199C0598058419862
:102EA0000188C04880494189004BC18B818A404AD2
:102EB000004EC18E818F404F018DC04D804C418CA2
:102EC0000044C184818540450187C04780464186D2
:102ED0000182C042804341830041C18181804040E2
:102EE00000000000000000000102030406070809BA
:102EF000A0860100400D0300801A060000350C007A
:102F000040420F0080841E0000093D0000127A003C
:102F10000024F40000366E010048E801006CDC0279
:102F20000000000001020304482F000800000020F8
:102F3000140000000C2C00085C2F00081400002076
:102F40008C0800001C2C000800000000000000009D
:0C2F5000000000000000000000093D002F
:04000005080001AD41
:00000001FF
